{
  "_format": "hh-sol-artifact-1",
  "contractName": "ProductAuth",
  "sourceName": "contracts/ProductAuth.sol",
  "abi": [
    {
      "inputs": [],
      "stateMutability": "nonpayable",
      "type": "constructor"
    },
    {
      "anonymous": false,
      "inputs": [
        {
          "indexed": false,
          "internalType": "string",
          "name": "manufacturerId",
          "type": "string"
        },
        {
          "indexed": false,
          "internalType": "string",
          "name": "name",
          "type": "string"
        },
        {
          "indexed": false,
          "internalType": "address",
          "name": "manufacturerAddress",
          "type": "address"
        }
      ],
      "name": "ManufacturerRegistered",
      "type": "event"
    },
    {
      "anonymous": false,
      "inputs": [
        {
          "indexed": false,
          "internalType": "string",
          "name": "serialNumber",
          "type": "string"
        },
        {
          "indexed": false,
          "internalType": "string",
          "name": "name",
          "type": "string"
        },
        {
          "indexed": false,
          "internalType": "string",
          "name": "brand",
          "type": "string"
        },
        {
          "indexed": false,
          "internalType": "uint256",
          "name": "price",
          "type": "uint256"
        },
        {
          "indexed": false,
          "internalType": "address",
          "name": "manufacturer",
          "type": "address"
        }
      ],
      "name": "ProductRegistered",
      "type": "event"
    },
    {
      "anonymous": false,
      "inputs": [
        {
          "indexed": false,
          "internalType": "string",
          "name": "serialNumber",
          "type": "string"
        },
        {
          "indexed": false,
          "internalType": "address",
          "name": "from",
          "type": "address"
        },
        {
          "indexed": false,
          "internalType": "address",
          "name": "to",
          "type": "address"
        }
      ],
      "name": "ProductTransferred",
      "type": "event"
    },
    {
      "anonymous": false,
      "inputs": [
        {
          "indexed": false,
          "internalType": "address",
          "name": "seller",
          "type": "address"
        },
        {
          "indexed": false,
          "internalType": "string",
          "name": "name",
          "type": "string"
        },
        {
          "indexed": false,
          "internalType": "string",
          "name": "brand",
          "type": "string"
        }
      ],
      "name": "SellerAdded",
      "type": "event"
    },
    {
      "inputs": [
        {
          "internalType": "string",
          "name": "sellerCode",
          "type": "string"
        },
        {
          "internalType": "string",
          "name": "name",
          "type": "string"
        },
        {
          "internalType": "string",
          "name": "brand",
          "type": "string"
        }
      ],
      "name": "addSeller",
      "outputs": [],
      "stateMutability": "nonpayable",
      "type": "function"
    },
    {
      "inputs": [
        {
          "internalType": "address",
          "name": "",
          "type": "address"
        }
      ],
      "name": "addressToManufacturerId",
      "outputs": [
        {
          "internalType": "string",
          "name": "",
          "type": "string"
        }
      ],
      "stateMutability": "view",
      "type": "function"
    },
    {
      "inputs": [
        {
          "internalType": "string",
          "name": "manufacturerId",
          "type": "string"
        }
      ],
      "name": "getManufacturerInfo",
      "outputs": [
        {
          "internalType": "string",
          "name": "name",
          "type": "string"
        },
        {
          "internalType": "address",
          "name": "manufacturerAddress",
          "type": "address"
        },
        {
          "internalType": "bool",
          "name": "isRegistered",
          "type": "bool"
        }
      ],
      "stateMutability": "view",
      "type": "function"
    },
    {
      "inputs": [
        {
          "internalType": "address",
          "name": "sellerAddress",
          "type": "address"
        }
      ],
      "name": "getSellerInfo",
      "outputs": [
        {
          "internalType": "string",
          "name": "name",
          "type": "string"
        },
        {
          "internalType": "string",
          "name": "sellerCode",
          "type": "string"
        },
        {
          "internalType": "string",
          "name": "brand",
          "type": "string"
        },
        {
          "internalType": "bool",
          "name": "isRegistered",
          "type": "bool"
        }
      ],
      "stateMutability": "view",
      "type": "function"
    },
    {
      "inputs": [
        {
          "internalType": "string",
          "name": "serialNumber",
          "type": "string"
        }
      ],
      "name": "isProductAuthentic",
      "outputs": [
        {
          "internalType": "bool",
          "name": "",
          "type": "bool"
        }
      ],
      "stateMutability": "view",
      "type": "function"
    },
    {
      "inputs": [
        {
          "internalType": "string",
          "name": "",
          "type": "string"
        }
      ],
      "name": "manufacturers",
      "outputs": [
        {
          "internalType": "string",
          "name": "name",
          "type": "string"
        },
        {
          "internalType": "string",
          "name": "manufacturerId",
          "type": "string"
        },
        {
          "internalType": "address",
          "name": "manufacturerAddress",
          "type": "address"
        },
        {
          "internalType": "bool",
          "name": "isRegistered",
          "type": "bool"
        }
      ],
      "stateMutability": "view",
      "type": "function"
    },
    {
      "inputs": [],
      "name": "owner",
      "outputs": [
        {
          "internalType": "address",
          "name": "",
          "type": "address"
        }
      ],
      "stateMutability": "view",
      "type": "function"
    },
    {
      "inputs": [
        {
          "internalType": "string",
          "name": "",
          "type": "string"
        }
      ],
      "name": "products",
      "outputs": [
        {
          "internalType": "string",
          "name": "name",
          "type": "string"
        },
        {
          "internalType": "string",
          "name": "serialNumber",
          "type": "string"
        },
        {
          "internalType": "string",
          "name": "brand",
          "type": "string"
        },
        {
          "internalType": "uint256",
          "name": "price",
          "type": "uint256"
        },
        {
          "internalType": "address",
          "name": "manufacturer",
          "type": "address"
        },
        {
          "internalType": "address",
          "name": "currentOwner",
          "type": "address"
        },
        {
          "internalType": "bool",
          "name": "isAuthentic",
          "type": "bool"
        },
        {
          "internalType": "bool",
          "name": "isRegistered",
          "type": "bool"
        }
      ],
      "stateMutability": "view",
      "type": "function"
    },
    {
      "inputs": [
        {
          "internalType": "string",
          "name": "manufacturerId",
          "type": "string"
        },
        {
          "internalType": "string",
          "name": "name",
          "type": "string"
        }
      ],
      "name": "registerManufacturer",
      "outputs": [],
      "stateMutability": "nonpayable",
      "type": "function"
    },
    {
      "inputs": [
        {
          "internalType": "string",
          "name": "manufacturerId",
          "type": "string"
        },
        {
          "internalType": "string",
          "name": "name",
          "type": "string"
        },
        {
          "internalType": "string",
          "name": "serialNumber",
          "type": "string"
        },
        {
          "internalType": "uint256",
          "name": "price",
          "type": "uint256"
        },
        {
          "internalType": "string",
          "name": "brand",
          "type": "string"
        }
      ],
      "name": "registerProduct",
      "outputs": [],
      "stateMutability": "nonpayable",
      "type": "function"
    },
    {
      "inputs": [
        {
          "internalType": "address",
          "name": "",
          "type": "address"
        }
      ],
      "name": "sellers",
      "outputs": [
        {
          "internalType": "string",
          "name": "name",
          "type": "string"
        },
        {
          "internalType": "string",
          "name": "sellerCode",
          "type": "string"
        },
        {
          "internalType": "address",
          "name": "sellerAddress",
          "type": "address"
        },
        {
          "internalType": "string",
          "name": "brand",
          "type": "string"
        },
        {
          "internalType": "bool",
          "name": "isRegistered",
          "type": "bool"
        }
      ],
      "stateMutability": "view",
      "type": "function"
    },
    {
      "inputs": [
        {
          "internalType": "string",
          "name": "serialNumber",
          "type": "string"
        },
        {
          "internalType": "address",
          "name": "sellerAddress",
          "type": "address"
        }
      ],
      "name": "transferProductToSeller",
      "outputs": [],
      "stateMutability": "nonpayable",
      "type": "function"
    },
    {
      "inputs": [
        {
          "internalType": "string",
          "name": "serialNumber",
          "type": "string"
        }
      ],
      "name": "verifyProduct",
      "outputs": [
        {
          "internalType": "string",
          "name": "name",
          "type": "string"
        },
        {
          "internalType": "string",
          "name": "brand",
          "type": "string"
        },
        {
          "internalType": "uint256",
          "name": "price",
          "type": "uint256"
        },
        {
          "internalType": "address",
          "name": "manufacturer",
          "type": "address"
        },
        {
          "internalType": "address",
          "name": "currentOwner",
          "type": "address"
        },
        {
          "internalType": "bool",
          "name": "isAuthentic",
          "type": "bool"
        },
        {
          "internalType": "bool",
          "name": "isRegistered",
          "type": "bool"
        }
      ],
      "stateMutability": "view",
      "type": "function"
    }
  ],
  "bytecode": "0x6080604052348015600f57600080fd5b50600080546001600160a01b03191633179055611ec9806100316000396000f3fe608060405234801561001057600080fd5b50600436106100cf5760003560e01c80638da5cb5b1161008c578063da466c3f11610066578063da466c3f146101fa578063e062acba1461020d578063f5146afe1461022d578063f8509b6c1461024f57600080fd5b80638da5cb5b1461018657806392efc453146101b1578063cf317b7e146101d757600080fd5b80630186a423146100d457806318c016ce1461010457806330b15caa146101195780633947dc061461012c5780636c498efa1461014f5780636d47ab7214610162575b600080fd5b6100e76100e2366004611744565b610272565b6040516100fb9897969594939291906117d0565b60405180910390f35b610117610112366004611845565b61046d565b005b61011761012736600461190b565b61073b565b61013f61013a366004611744565b6108b4565b60405190151581526020016100fb565b61011761015d366004611972565b610920565b610175610170366004611a1f565b610ac7565b6040516100fb959493929190611a41565b600054610199906001600160a01b031681565b6040516001600160a01b0390911681526020016100fb565b6101c46101bf366004611744565b610c9f565b6040516100fb9796959493929190611a9e565b6101ea6101e5366004611a1f565b610f1b565b6040516100fb9493929190611afc565b610117610208366004611b49565b611152565b61022061021b366004611a1f565b611320565b6040516100fb9190611b96565b61024061023b366004611744565b6113ba565b6040516100fb93929190611ba9565b61026261025d366004611744565b61154e565b6040516100fb9493929190611bdc565b805160208183018101805160018252928201919093012091528054819061029890611c23565b80601f01602080910402602001604051908101604052809291908181526020018280546102c490611c23565b80156103115780601f106102e657610100808354040283529160200191610311565b820191906000526020600020905b8154815290600101906020018083116102f457829003601f168201915b50505050509080600101805461032690611c23565b80601f016020809104026020016040519081016040528092919081815260200182805461035290611c23565b801561039f5780601f106103745761010080835404028352916020019161039f565b820191906000526020600020905b81548152906001019060200180831161038257829003601f168201915b5050505050908060020180546103b490611c23565b80601f01602080910402602001604051908101604052809291908181526020018280546103e090611c23565b801561042d5780601f106104025761010080835404028352916020019161042d565b820191906000526020600020905b81548152906001019060200180831161041057829003601f168201915b50505060038401546004850154600590950154939490936001600160a01b039182169350908116915060ff600160a01b8204811691600160a81b90041688565b84336001600160a01b03166003826040516104889190611c5d565b908152604051908190036020019020600201546001600160a01b0316146104f65760405162461bcd60e51b815260206004820152601b60248201527f4e6f7420617574686f72697a6564206d616e756661637475726572000000000060448201526064015b60405180910390fd5b60006001600160a01b03166001856040516105119190611c5d565b908152604051908190036020019020600401546001600160a01b03161461057a5760405162461bcd60e51b815260206004820152601a60248201527f50726f6475637420616c7265616479207265676973746572656400000000000060448201526064016104ed565b60008451116105cb5760405162461bcd60e51b815260206004820152601d60248201527f53657269616c206e756d6265722063616e6e6f7420626520656d70747900000060448201526064016104ed565b604051806101000160405280868152602001858152602001838152602001848152602001336001600160a01b03168152602001336001600160a01b031681526020016001151581526020016001151581525060018560405161062d9190611c5d565b9081526040519081900360200190208151819061064a9082611cc8565b506020820151600182019061065f9082611cc8565b50604082015160028201906106749082611cc8565b506060820151600382015560808201516004820180546001600160a01b0319166001600160a01b0392831617905560a08301516005909201805460c085015160e090950151939092166001600160a81b031990921691909117600160a01b931515939093029290921760ff60a81b1916600160a81b911515919091021790556040517f933155536f344c2fed89b329af0e387eb58855bf6a0d27ad40d0abdded21f1f09061072b9086908890869088903390611d86565b60405180910390a1505050505050565b60006001600160a01b03166003836040516107569190611c5d565b908152604051908190036020019020600201546001600160a01b0316146107bf5760405162461bcd60e51b815260206004820152601e60248201527f4d616e75666163747572657220494420616c726561647920657869737473000060448201526064016104ed565b604080516080810182528281526020810184905233818301526001606082015290516003906107ef908590611c5d565b9081526040519081900360200190208151819061080c9082611cc8565b50602082015160018201906108219082611cc8565b50604082810151600290920180546060909401511515600160a01b026001600160a81b03199094166001600160a01b03909316929092179290921790553360009081526004602052206108748382611cc8565b507fc79bfa12c012a779a199526346e310edf72e2eea4851dba08b0652910ea900fe8282336040516108a893929190611de2565b60405180910390a15050565b60006001826040516108c69190611c5d565b9081526040519081900360200190206005015460ff600160a81b90910416801561091a57506001826040516108fb9190611c5d565b9081526040519081900360200190206005015460ff600160a01b909104165b92915050565b3360009081526002602052604090206004015460ff16156109835760405162461bcd60e51b815260206004820152601960248201527f53656c6c657220616c726561647920726567697374657265640000000000000060448201526064016104ed565b60008351116109d45760405162461bcd60e51b815260206004820152601b60248201527f53656c6c657220636f64652063616e6e6f7420626520656d707479000000000060448201526064016104ed565b6040805160a0810182528381526020808201869052338284018190526060830185905260016080840152600090815260029091529190912081518190610a1a9082611cc8565b5060208201516001820190610a2f9082611cc8565b5060408201516002820180546001600160a01b0319166001600160a01b0390921691909117905560608201516003820190610a6a9082611cc8565b50608091909101516004909101805460ff19169115159190911790556040517f90b251ff31b85be669e4a8200a399311f196b42b7c1abda09258a920170e722290610aba90339085908590611e20565b60405180910390a1505050565b600260205260009081526040902080548190610ae290611c23565b80601f0160208091040260200160405190810160405280929190818152602001828054610b0e90611c23565b8015610b5b5780601f10610b3057610100808354040283529160200191610b5b565b820191906000526020600020905b815481529060010190602001808311610b3e57829003601f168201915b505050505090806001018054610b7090611c23565b80601f0160208091040260200160405190810160405280929190818152602001828054610b9c90611c23565b8015610be95780601f10610bbe57610100808354040283529160200191610be9565b820191906000526020600020905b815481529060010190602001808311610bcc57829003601f168201915b505050600284015460038501805494956001600160a01b03909216949193509150610c1390611c23565b80601f0160208091040260200160405190810160405280929190818152602001828054610c3f90611c23565b8015610c8c5780601f10610c6157610100808354040283529160200191610c8c565b820191906000526020600020905b815481529060010190602001808311610c6f57829003601f168201915b5050506004909301549192505060ff1685565b606080600080600080600080600189604051610cbb9190611c5d565b908152602001604051809103902060405180610100016040529081600082018054610ce590611c23565b80601f0160208091040260200160405190810160405280929190818152602001828054610d1190611c23565b8015610d5e5780601f10610d3357610100808354040283529160200191610d5e565b820191906000526020600020905b815481529060010190602001808311610d4157829003601f168201915b50505050508152602001600182018054610d7790611c23565b80601f0160208091040260200160405190810160405280929190818152602001828054610da390611c23565b8015610df05780601f10610dc557610100808354040283529160200191610df0565b820191906000526020600020905b815481529060010190602001808311610dd357829003601f168201915b50505050508152602001600282018054610e0990611c23565b80601f0160208091040260200160405190810160405280929190818152602001828054610e3590611c23565b8015610e825780601f10610e5757610100808354040283529160200191610e82565b820191906000526020600020905b815481529060010190602001808311610e6557829003601f168201915b50505091835250506003820154602082015260048201546001600160a01b0390811660408084019190915260059093015490811660608084019190915260ff600160a01b830481161515608080860191909152600160a81b90930416151560a09384015284519385015190850151918501519285015160c086015160e090960151949f919e50919c50919a509850919650945092505050565b606080606060008060026000876001600160a01b03166001600160a01b031681526020019081526020016000206040518060a0016040529081600082018054610f6390611c23565b80601f0160208091040260200160405190810160405280929190818152602001828054610f8f90611c23565b8015610fdc5780601f10610fb157610100808354040283529160200191610fdc565b820191906000526020600020905b815481529060010190602001808311610fbf57829003601f168201915b50505050508152602001600182018054610ff590611c23565b80601f016020809104026020016040519081016040528092919081815260200182805461102190611c23565b801561106e5780601f106110435761010080835404028352916020019161106e565b820191906000526020600020905b81548152906001019060200180831161105157829003601f168201915b505050918352505060028201546001600160a01b0316602082015260038201805460409092019161109e90611c23565b80601f01602080910402602001604051908101604052809291908181526020018280546110ca90611c23565b80156111175780601f106110ec57610100808354040283529160200191611117565b820191906000526020600020905b8154815290600101906020018083116110fa57829003601f168201915b50505091835250506004919091015460ff16151560209182015281519082015160608301516080909301519199909850919650945092505050565b336001600160a01b031660018360405161116c9190611c5d565b908152604051908190036020019020600401546001600160a01b0316146111d55760405162461bcd60e51b815260206004820152601c60248201527f4e6f74207468652070726f64756374206d616e7566616374757265720000000060448201526064016104ed565b6001600160a01b03811660009081526002602052604090206004015460ff166112385760405162461bcd60e51b815260206004820152601560248201527414d95b1b195c881b9bdd081c9959da5cdd195c9959605a1b60448201526064016104ed565b6001826040516112489190611c5d565b9081526040519081900360200190206005015460ff600160a81b909104166112ab5760405162461bcd60e51b8152602060048201526016602482015275141c9bd91d58dd081b9bdd081c9959da5cdd195c995960521b60448201526064016104ed565b806001836040516112bc9190611c5d565b90815260405190819003602001812060050180546001600160a01b03939093166001600160a01b0319909316929092179091557f9b59ff059d6c04ad6bc0611444d658a2e1c70a894824b83b040b2aad6e14f013906108a890849033908590611e60565b6004602052600090815260409020805461133990611c23565b80601f016020809104026020016040519081016040528092919081815260200182805461136590611c23565b80156113b25780601f10611387576101008083540402835291602001916113b2565b820191906000526020600020905b81548152906001019060200180831161139557829003601f168201915b505050505081565b606060008060006003856040516113d19190611c5d565b90815260200160405180910390206040518060800160405290816000820180546113fa90611c23565b80601f016020809104026020016040519081016040528092919081815260200182805461142690611c23565b80156114735780601f1061144857610100808354040283529160200191611473565b820191906000526020600020905b81548152906001019060200180831161145657829003601f168201915b5050505050815260200160018201805461148c90611c23565b80601f01602080910402602001604051908101604052809291908181526020018280546114b890611c23565b80156115055780601f106114da57610100808354040283529160200191611505565b820191906000526020600020905b8154815290600101906020018083116114e857829003601f168201915b5050509183525050600291909101546001600160a01b0381166020830152600160a01b900460ff1615156040918201528151908201516060909201519097919650945092505050565b805160208183018101805160038252928201919093012091528054819061157490611c23565b80601f01602080910402602001604051908101604052809291908181526020018280546115a090611c23565b80156115ed5780601f106115c2576101008083540402835291602001916115ed565b820191906000526020600020905b8154815290600101906020018083116115d057829003601f168201915b50505050509080600101805461160290611c23565b80601f016020809104026020016040519081016040528092919081815260200182805461162e90611c23565b801561167b5780601f106116505761010080835404028352916020019161167b565b820191906000526020600020905b81548152906001019060200180831161165e57829003601f168201915b505050600290930154919250506001600160a01b0381169060ff600160a01b9091041684565b634e487b7160e01b600052604160045260246000fd5b600082601f8301126116c857600080fd5b81356001600160401b038111156116e1576116e16116a1565b604051601f8201601f19908116603f011681016001600160401b038111828210171561170f5761170f6116a1565b60405281815283820160200185101561172757600080fd5b816020850160208301376000918101602001919091529392505050565b60006020828403121561175657600080fd5b81356001600160401b0381111561176c57600080fd5b611778848285016116b7565b949350505050565b60005b8381101561179b578181015183820152602001611783565b50506000910152565b600081518084526117bc816020860160208601611780565b601f01601f19169290920160200192915050565b610100815260006117e561010083018b6117a4565b82810360208401526117f7818b6117a4565b9050828103604084015261180b818a6117a4565b606084019890985250506001600160a01b0394851660808201529290931660a0830152151560c082015290151560e0909101529392505050565b600080600080600060a0868803121561185d57600080fd5b85356001600160401b0381111561187357600080fd5b61187f888289016116b7565b95505060208601356001600160401b0381111561189b57600080fd5b6118a7888289016116b7565b94505060408601356001600160401b038111156118c357600080fd5b6118cf888289016116b7565b9350506060860135915060808601356001600160401b038111156118f257600080fd5b6118fe888289016116b7565b9150509295509295909350565b6000806040838503121561191e57600080fd5b82356001600160401b0381111561193457600080fd5b611940858286016116b7565b92505060208301356001600160401b0381111561195c57600080fd5b611968858286016116b7565b9150509250929050565b60008060006060848603121561198757600080fd5b83356001600160401b0381111561199d57600080fd5b6119a9868287016116b7565b93505060208401356001600160401b038111156119c557600080fd5b6119d1868287016116b7565b92505060408401356001600160401b038111156119ed57600080fd5b6119f9868287016116b7565b9150509250925092565b80356001600160a01b0381168114611a1a57600080fd5b919050565b600060208284031215611a3157600080fd5b611a3a82611a03565b9392505050565b60a081526000611a5460a08301886117a4565b8281036020840152611a6681886117a4565b6001600160a01b038716604085015283810360608501529050611a8981866117a4565b91505082151560808301529695505050505050565b60e081526000611ab160e083018a6117a4565b8281036020840152611ac3818a6117a4565b604084019890985250506001600160a01b039485166060820152929093166080830152151560a082015290151560c09091015292915050565b608081526000611b0f60808301876117a4565b8281036020840152611b2181876117a4565b90508281036040840152611b3581866117a4565b915050821515606083015295945050505050565b60008060408385031215611b5c57600080fd5b82356001600160401b03811115611b7257600080fd5b611b7e858286016116b7565b925050611b8d60208401611a03565b90509250929050565b602081526000611a3a60208301846117a4565b606081526000611bbc60608301866117a4565b6001600160a01b0394909416602083015250901515604090910152919050565b608081526000611bef60808301876117a4565b8281036020840152611c0181876117a4565b6001600160a01b03959095166040840152505090151560609091015292915050565b600181811c90821680611c3757607f821691505b602082108103611c5757634e487b7160e01b600052602260045260246000fd5b50919050565b60008251611c6f818460208701611780565b9190910192915050565b601f821115611cc357806000526020600020601f840160051c81016020851015611ca05750805b601f840160051c820191505b81811015611cc05760008155600101611cac565b50505b505050565b81516001600160401b03811115611ce157611ce16116a1565b611cf581611cef8454611c23565b84611c79565b6020601f821160018114611d295760008315611d115750848201515b600019600385901b1c1916600184901b178455611cc0565b600084815260208120601f198516915b82811015611d595787850151825560209485019460019092019101611d39565b5084821015611d775786840151600019600387901b60f8161c191681555b50505050600190811b01905550565b60a081526000611d9960a08301886117a4565b8281036020840152611dab81886117a4565b90508281036040840152611dbf81876117a4565b606084019590955250506001600160a01b03919091166080909101529392505050565b606081526000611df560608301866117a4565b8281036020840152611e0781866117a4565b91505060018060a01b0383166040830152949350505050565b6001600160a01b0384168152606060208201819052600090611e44908301856117a4565b8281036040840152611e5681856117a4565b9695505050505050565b606081526000611e7360608301866117a4565b6001600160a01b039485166020840152929093166040909101529291505056fea264697066735822122001d9fa72c4ec926273f8ee0ab7bdfc53c3036c94f8157c564cbe4ccc2ccc09ee64736f6c634300081c0033",
  "linkReferences": {},
  "deployedLinkReferences": {}
}